:100000000C9478000C94A0000C94A0000C94A00018
:100010000C94A0000C94A0000C94A0000C94CE03AF
:100020000C94A0000C94A0000C94A0000C94A000D0
:100030000C94A0000C94A0000C94A0000C94A000C0
:100040000C942C030C94A0000C949C030C94760349
:100050000C94A0000C94A0000C94A0000C94A000A0
:100060000C94A0000C94A000E305E805ED05F20552
:10007000F705FC05010606060B06100615061A060E
:100080001F06240629062E06330638063D064206BC
:1000900047064C060000000023002600290000004F
:1000A0000008000201000003040700000000000037
:1000B000000000000000250028002B0000000000C8
:1000C000240027002A000404040404040404020297
:1000D00002020202030303030303010204081020C7
:1000E00040800102040810200102040810205D066F
:1000F00011241FBECFEFD8E0DEBFCDBF11E0A0E0DE
:10010000B1E0E2EFFDE002C005900D92AA31B10727
:10011000D9F722E0AAE1B1E001C01D92A239B207ED
:10012000E1F710E0C8E7D0E004C02197FE010E948B
:10013000E506C737D107C9F70E94A9040C94F70652
:100140000C940000833081F028F4813099F08230E3
:10015000A1F008958730A9F08830B9F08430D1F447
:10016000809180008F7D03C0809180008F77809385
:100170008000089584B58F7702C084B58F7D84BDDB
:1001800008958091B0008F7703C08091B0008F7D7B
:100190008093B00008951F93CF93DF93282F30E012
:1001A000F901E256FF4F8491F901E652FF4FD491D5
:1001B000F901EA53FF4FC491CC23C1F0162F8111EE
:1001C0000E94A200EC2FF0E0EE0FFF1FEE54FF4F55
:1001D000A591B4919FB7F894111104C08C91D0955A
:1001E000D82302C0EC91DE2BDC939FBFDF91CF912F
:1001F0001F9108958E3008F08E5087708064809330
:100200007C0080917A00806480937A0080917A00EB
:1002100086FDFCCF809178002091790090E0922BB0
:1002200008953FB7F8948091F1019091F201A09167
:10023000F301B091F40126B5A89B05C02F3F19F03A
:100240000196A11DB11D3FBFBA2FA92F982F882756
:10025000820F911DA11DB11DBC01CD0142E0660FB1
:10026000771F881F991F4A95D1F70895CF92DF9283
:10027000EF92FF920F931F93CF93DF936C017A015C
:100280008B01C0E0D0E0CE15DF0581F0D8016D9183
:100290008D01D601ED91FC910190F081E02DC60118
:1002A0000995892B11F02196EECF7E01C701DF91D0
:1002B000CF911F910F91FF90EF90DF90CF90089515
:1002C000089580E090E00895FC01538D448D252F22
:1002D00030E0842F90E0821B930B541710F0CF96E0
:1002E000089501970895FC01918D828D981761F012
:1002F000828DDF01A80FB11D5D968C91928D9F5F5D
:100300009F73928F90E008958FEF9FEF0895FC0107
:10031000918D828D981731F0828DE80FF11D858DBA
:1003200090E008958FEF9FEF0895FC01918D228D4D
:10033000892F90E0805C9F4F821B91098F739927D2
:10034000089585EF91E00E94950121E0892B09F441
:1003500020E0822F0895FC01848DDF01A80FB11DDC
:10036000A35ABF4F2C91848D90E001968F739927EB
:10037000848FA689B7892C93A089B1898C918370C9
:1003800080648C93938D848D981306C00288F389C2
:10039000E02D80818F7D80830895EF92FF920F93EF
:1003A0001F93CF93DF93EC0181E0888F9B8D8C8D21
:1003B000981305C0E889F989808185FD26C0F62E4D
:1003C0000B8D10E00F5F1F4F0F731127E02E8C8DE8
:1003D000E8120CC00FB607FCFACFE889F9898081D2
:1003E00085FFF5CFCE010E94AB01F1CF8B8DFE01D1
:1003F000E80FF11DE35AFF4FF0829FB7F8940B8F7F
:10040000EA89FB89808180620AC09FB7F894EE89EF
:10041000FF896083E889F9898081837080648083A3
:100420009FBF81E090E0DF91CF911F910F91FF90EE
:10043000EF900895CF93DF93EC01888D8823C9F066
:10044000EA89FB89808185FD05C0A889B9898C91DD
:1004500086FD0FC00FB607FCF5CF808185FFF2CF78
:10046000A889B9898C9185FFEDCFCE010E94AB019F
:10047000E7CFDF91CF91089580E090E0892B29F0BC
:100480000E94A10181110C94000008958F929F9207
:10049000AF92BF92CF92DF92EF92FF926B017C01FD
:1004A0000E9411014B015C0184E0C81AD108E108E7
:1004B000F108C80CD91CEA1CFB1CC814D904EA04B6
:1004C000FB0438F40E94110186169706A806B906A7
:1004D000C8F30E9411016C157D058E059F05C8F3B8
:1004E000FF90EF90DF90CF90BF90AF909F908F9054
:1004F00008952091B0002F7D2093B000009751F017
:10050000BC0180E090E0653071058105910510F037
:100510000C94460208952091B00020622093B00010
:10052000009751F0BC0180E090E0653071058105D5
:10053000910510F00C94460208958F929F92AF920D
:10054000BF92CF92DF92EF92FF92CF93DF936B0136
:100550007C0110927000EDEDF0E02491E9ECF0E008
:100560008491882399F090E0880F991FFC01E4544E
:10057000FF4FA591B491FC01EE54FF4F85919491EA
:100580008FB7F894EC91E22BEC938FBF60E083E09F
:100590000E94CB0081E08093B00089E08093B1009D
:1005A00082ED8093B30086E48093B40088E293E206
:1005B0000E948B0284E991E10E947902C0E2D0E0BE
:1005C000812C912CA12C90E8B92ED701C60188214D
:1005D0009921AA21BB21892B8A2B8B2B39F080E30F
:1005E00092E00E948B028AE996E006C080E392E0E6
:1005F0000E948B0280E392E00E947902B694A79455
:1006000097948794219709F780E392E00E948B02E8
:100610008091B0008F7D8093B000DF91CF91FF90EB
:10062000EF90DF90CF90BF90AF909F908F90089504
:10063000009769F0FC0101900020E9F73197AF01C4
:10064000481B590BBC0185EF91E00C94360180E00A
:1006500090E008950E94F2061F920F920FB60F923B
:1006600011242F933F938F939F93AF93BF938091C8
:10067000ED019091EE01A091EF01B091F001309168
:10068000EC0123E0230F2D3720F40196A11DB11DAD
:1006900005C026E8230F0296A11DB11D2093EC0191
:1006A0008093ED019093EE01A093EF01B093F001E0
:1006B0008091F1019091F201A091F301B091F401C8
:1006C0000196A11DB11D8093F1019093F201A093B9
:1006D000F301B093F401BF91AF919F918F913F913E
:1006E0002F910F900FBE0F901F9018951F920F9291
:1006F0000FB60F9211242F933F934F935F936F93F5
:100700007F938F939F93AF93BF93EF93FF9385EF67
:1007100091E00E94AB01FF91EF91BF91AF919F914A
:100720008F917F916F915F914F913F912F910F909A
:100730000FBE0F901F9018951F920F920FB60F9239
:1007400011242F938F939F93EF93FF93E0910502D2
:10075000F09106028081E0910B02F0910C0282FD83
:1007600012C0908180910E028F5F8F7320910F02D3
:10077000821751F0E0910E02F0E0EB50FE4F958FA2
:1007800080930E0201C08081FF91EF919F918F9124
:100790002F910F900FBE0F901F9018951F920F92E0
:1007A0000FB60F9211242F933F934F935F936F9344
:1007B0007F938F939F93AF93BF93CF93DF93EF93E9
:1007C000FF9320911B0130E0F901E256FF4F849125
:1007D000F901E652FF4FD491F901EA53FF4FC4915A
:1007E000CC2379F081110E94A200EC2FF0E0EE0FF3
:1007F000FF1FEC56FF4FA591B491EC91ED2381E0E2
:1008000009F480E020911F01309120012F5F3F4FBC
:100810003093200120931F0190911E01953618F00E
:1008200096E090931A0190911A019430C9F128F43E
:10083000923069F09330D1F05EC0953009F451C028
:10084000963009F058C091E09093EB0151C08111AE
:1008500052C020911F01309120012436310508F447
:1008600042C01092EB0110921E011CC0813009F0B1
:1008700042C0E0911E0191E09E0F90931E01F0E0B6
:1008800020911F0130912001EE0FFF1FE65EFE4F09
:10089000308727831092200110921F0194E029C015
:1008A000811117C0E0911E0191E09E0F90931E01EF
:1008B000F0E020911F0130912001EE0FFF1FE65E56
:1008C000FE4F308727831092200110921F0193E082
:1008D00010C020911F01309120012536310558F0BC
:1008E00007C0811108C01092200110921F0103C09F
:1008F00095E090931A0190911D019923B9F081110F
:100900000AC080911C01882321F080911C0161E0C4
:1009100009C02D9A0BC080911C01882331F0809171
:100920001C0160E00E94CB0001C02D98FF91EF9167
:10093000DF91CF91BF91AF919F918F917F916F91F7
:100940005F914F913F912F910F900FBE0F901F908D
:100950001895CF93DF93CDB7DEB7A1970FB6F89474
:10096000DEBF0FBECDBF789484B5826084BD84B5F0
:10097000816084BD85B5826085BD85B5816085BD9A
:1009800080916E00816080936E0010928100809152
:1009900081008260809381008091810081608093DA
:1009A0008100809180008160809380008091B100FF
:1009B00084608093B1008091B00081608093B0002A
:1009C00080917A00846080937A0080917A008260BE
:1009D00080937A0080917A00816080937A00809180
:1009E0007A00806880937A001092C100E09105023D
:1009F000F091060282E08083E0910102F091020210
:100A00001082E0910302F09104028FEC8083109237
:100A10000D02E0910902F0910A0286E08083E091E4
:100A20000702F0910802808180618083E0910702D3
:100A3000F0910802808188608083E0910702F09144
:100A40000802808180688083E0910702F0910802AB
:100A500080818F7D8083E9EEF0E02491E5EDF0E088
:100A600084918823C9F090E0880F991FFC01E45419
:100A7000FF4F45915491FC01EE54FF4FA591B49165
:100A80009FB7F894FA0180812095822380838C910E
:100A9000E22FE823EC939FBF22242A9483E0382E90
:100AA0009AE0C92ED12CE12CF12C2EEF822E23E0DE
:100AB000922EA12CB12C8FE00E94FA00D101A81B2C
:100AC000B90B24E630E00E94EB062FEF33E040E064
:100AD00050E00E948A0629013A0157FF20C06DE2CA
:100AE00085EF91E00E94CD0122273327A901241927
:100AF00035094609570919A28E010F5D1F4FCA011A
:100B0000B901A70196010E94B406605DF8016293E5
:100B10008F01211531054105510589F713C019A22F
:100B20008E010F5D1F4FCA01B901A70196010E94F6
:100B3000B406605DF80162938F012115310541050E
:100B4000510589F7C8010E94180384E191E00E94D1
:100B5000180387E191E00E94180384E191E00E946C
:100B600018038EE00E94FA00092E000CAA0BBB0BA2
:100B70009C01AD012150310941095109A6E1B0E0C4
:100B80000E94A906A50194010E948A0629013A0142
:100B900080910001909101018217930709F48AC0A6
:100BA00061E082E00E94CB00C201052C000CAA0B80
:100BB000BB0BFC013197E631F10508F073C0EC5C2A
:100BC000FF4F0C94E5066EEF71E08FEF90E068C088
:100BD0006EE771E88FEF90E063C06EE171EE8FEF2A
:100BE00090E05EC06EED71E28FEF90E059C06EE56F
:100BF00071EA8FEF90E054C06EE971E68FEF90E0FC
:100C00004FC06EEE71E18FEF90E04AC06EE671E981
:100C10008FEF90E045C06EEA71E58FEF90E040C045
:100C20006EEC71E38FEF90E03BC06EE471EB8FEF01
:100C300090E036C06EE871E78FEF90E031C066EF6C
:100C400079E08FEF90E02CC066E779E88FEF90E0D5
:100C500027C066EB79E48FEF90E022C066ED79E281
:100C60008FEF90E01DC066E579EA8FEF90E018C045
:100C700066E979E68FEF90E013C06EE271ED8FEFD9
:100C800090E00EC06EE071EF8FEF90E009C066E378
:100C900079EC8FEF90E004C066E179EE8FEF90E0A1
:100CA0000E949D0260E082E00E94CB005092010110
:100CB000409200010E943C02FECEE5EFF1E013827B
:100CC000128288EE93E0A0E0B0E084839583A6834F
:100CD000B78386E091E09183808385EC90E09587EF
:100CE000848784EC90E09787868780EC90E0918BF6
:100CF000808B81EC90E0938B828B82EC90E0958BE3
:100D0000848B86EC90E0978B868B118E128E138EDF
:100D1000148E0895052E97FB1EF400940E94A106E0
:100D200057FD07D00E94B40607FC03D04EF40C9484
:100D3000A10650954095309521953F4F4F4F5F4FFD
:100D4000089590958095709561957F4F8F4F9F4F37
:100D500008950E94D606A59F900DB49F900DA49F64
:100D6000800D911D11240895A1E21A2EAA1BBB1B10
:100D7000FD010DC0AA1FBB1FEE1FFF1FA217B30767
:100D8000E407F50720F0A21BB30BE40BF50B661F7D
:100D9000771F881F991F1A9469F760957095809541
:100DA00090959B01AC01BD01CF010895A29FB001B8
:100DB000B39FC001A39F700D811D1124911DB29F8F
:100DC000700D811D1124911D0895EE0FFF1F0590D8
:100DD000F491E02D09940E94D606B7FF0895821B76
:100DE000930B089581E090E0F8940C94F706F89442
:020DF000FFCF33
:100DF200FFFF00000000CD01360164011A029501D7
:0A0E0200730187010D0A00250000AE
:00000001FF
