:100000002BC100005AC1000058C1000056C10000B9
:1000100054C1000052C1000050C100004EC1000098
:100020004CC100004AC1000048C1000046C10000A8
:1000300044C1000087C2000040C10000EDC30000C1
:100040003CC100003AC1000038C1000036C10000C8
:1000500034C1000032C1000030C100000C94950C86
:100060002CC100000C94EF090C94C60926C10000B5
:1000700024C1000022C1000020C100001EC10000F8
:100080001CC100001AC1000018C10000B7C3000065
:1000900014C1000012C1000010C100000EC1000018
:1000A0000CC100000AC1000008C1000006C1000028
:1000B00004C1000002C1000000C10000FEC0000039
:1000C000FCC00000FAC00000F8C00000F6C000004C
:1000D000F4C00000F2C00000F0C00000EEC000005C
:1000E000ECC00000D801DD01E301E801ED01F201FF
:1000F000F701FC01010206020B02100215021A02AE
:100100001F02240229022E02330238023D0242025B
:100110003F0A420A310A350A3B0A790A460A4A0A64
:10012000500A540A580A5E0A620A660A790A6C0A78
:10013000700A740A00002100240027002A002D0004
:100140003000330001010000040107010A01000032
:100150002200250028002B002E003100340002016F
:100160000000050108010B0100002000230026000B
:1001700029002C002F0032000001000003010601BD
:10018000090105050505070508080808020202021D
:100190000A0A080804040404010101010101010123
:1001A0000303030303030303040707070C0C0C0CEE
:1001B0000C0C0C0C020202020606060606060606D7
:1001C0000B0B0B0B0B0B0B0B010210202008081064
:1001D00020401020408002010201080402010102B7
:1001E0000408102040808040201008040201800490
:1001F00002018040201008040201080402010102EB
:1002000004081020408001020408102040800000F3
:100210000A0B02090C0D0E08070304010000000080
:1002200000000000000000000000000000000000CE
:10023000000000000000000000001211100000008B
:1002400000000000000000000000000000000000AE
:10025000000000006A0F130D11241FBECFEFD1E282
:10026000DEBFCDBF00E00CBF13E0A0E0B2E0ECE4E5
:10027000F7E200E00BBF02C007900D92A031B1077A
:10028000D9F725E0A0E1B3E001C01D92A738B2077D
:10029000E1F711E0CBE2D1E000E006C021970109CF
:1002A000802FFE010E946F11CA32D10780E008073B
:1002B000A9F70E94260D0C949513A2CEFC01918DF6
:1002C000828D981761F0828DDF01A80FB11D5D96B8
:1002D0008C91928D9F5F9F73928F90E008958FEF26
:1002E0009FEF0895FC01918D828D981731F0828DDA
:1002F000E80FF11D858D90E008958FEF9FEF089531
:10030000FC01918D228D892F90E0805C9F4F821B94
:1003100091098F739927089580E090E0892B19F057
:1003200091D6811125C080E090E0892B41F080E0DA
:1003300090E0892B21F00E94000081111CC080E018
:1003400090E0892B41F080E090E0892B21F00E9421
:100350000000811113C080E090E0892BA1F080E0C3
:1003600090E0892B81F00E94000081110AC008955D
:100370000E940000D8CF0E940000E1CF0E94000040
:10038000EACF0C94000008952091E30321117FC06F
:100390009093010280930002FC013197E631F10550
:1003A00008F07AC08827EE58FF4F8F4F0C946F11DA
:1003B0006EEF71E08FEF90E004C06EE771E88FEFB1
:1003C00090E00C94DC0B6EE171EE8FEF90E0F9CFD2
:1003D0006EED71E28FEF90E0F4CF6EE571EA8FEF92
:1003E00090E0EFCF6EE971E68FEF90E0EACF6EEE2E
:1003F00071E18FEF90E0E5CF6EE671E98FEF90E06D
:10040000E0CF6EEA71E58FEF90E0DBCF6EEC71E349
:100410008FEF90E0D6CF6EE471EB8FEF90E0D1CF0D
:100420006EE871E78FEF90E0CCCF66EF79E08FEF69
:1004300090E0C7CF66E779E88FEF90E0C2CF66EB38
:1004400079E48FEF90E0BDCF66ED79E28FEF90E039
:10045000B8CF66E579EA8FEF90E0B3CF66E979E649
:100460008FEF90E0AECF6EE271ED8FEF90E0A9CF0D
:100470006EE071EF8FEF90E0A4CF66E379EC8FEF41
:1004800090E09FCF66E179EE8FEF90E09ACF61EB3D
:1004900074E084E795E024C70895FC01848DDF01B2
:1004A000A80FB11DA35ABF4F2C91848D90E00196E7
:1004B0008F739927848FA689B7892C93A089B189D6
:1004C0008C91837080648C93938D848D981306C077
:1004D0000288F389E02D80818F7D808308958F923B
:1004E0009F92AF92BF92CF92DF92EF92FF926B01F9
:1004F0007C010E94380C4B015C0184E0C81AD108D1
:10050000E108F108C80CD91CEA1CFB1CC814D9046A
:10051000EA04FB0438F40E94380C86169706A806F5
:10052000B906C8F30E94380C6C157D058E059F0531
:10053000C8F3FF90EF90DF90CF90BF90AF909F9067
:100540008F9008951F920F920FB60F9211240BB641
:100550000F922F933F934F935F936F937F938F935C
:100560009F93AF93BF93EF93FF93809112030E94E9
:100570004A0B20911603309117032F5F3F4F3093A2
:1005800017032093160390911503953618F096E003
:1005900090931103909111039430C9F128F4923093
:1005A00069F09330D1F05EC0953009F451C09630B7
:1005B00009F058C091E09093E20351C0811152C0FC
:1005C00020911603309117032436310508F442C0F8
:1005D0001092E203109215031CC0813009F042C052
:1005E000E091150391E09E0F90931503F0E02091A8
:1005F000160330911703EE0FFF1FEF5EFC4F30879D
:100600002783109217031092160394E029C08111DA
:1006100017C0E091150391E09E0F90931503F0E051
:100620002091160330911703EE0FFF1FEF5EFC4F72
:1006300030872783109217031092160393E010C09F
:1006400020911603309117032536310558F007C065
:10065000811108C0109217031092160303C095E091
:1006600090931103909114039923B9F081110AC05A
:1006700080911303882321F08091130361E009C066
:100680002F9A0BC080911303882331F080911303BC
:1006900060E00E94720B01C02F98FF91EF91BF9113
:1006A000AF919F918F917F916F915F914F913F910A
:1006B0002F910F900BBE0F900FBE0F901F901895AB
:1006C0000F931F93CF93DF938C01EB010A9724F4D0
:1006D00060E384E194E05DD5C80141D780E292E017
:1006E0002DD7CA30D10554F48CEE92E027D7CE0135
:1006F00036D760E284E194E04CD502C0CE012FD71A
:1007000082E292E0DF91CF911F910F9117C7CF93B3
:10071000DF938091E303811116C06EE371EC8FEFDC
:1007200090E00E94DC0BCAE0D0E06EEF71E08FEF4A
:1007300090E00E94DC0B2197C1F781E080931003C9
:10074000DF91CF91089561EB74E084E795E0DF914C
:10075000CF91C6C5CF93DF938091E303811115C07C
:10076000CAE0D0E06EE771E88FEF90E00E94DC0B0A
:100770002197C1F76EEB71E48FEF90E00E94DC0BE4
:1007800010921003DF91CF91089561EB74E084E73C
:1007900095E0DF91CF91A4C5CF93DF93C091000284
:1007A000D0910102C430D10519F487E090E002C075
:1007B00084E090E0E9DD64EF71E080E090E00E9489
:1007C0005D0CCE01E1DD64EF71E080E090E00E941D
:1007D0005D0C249719F487E090E002C084E090E07B
:1007E000D3DD64EF71E080E090E00E945D0C6EEB81
:1007F00071E48FEF90E0DF91CF91DEC71F920F92EF
:100800000FB60F9211248F938091E9038F910F906F
:100810000FBE0F901F9018951F920F920FB60F9258
:1008200011248F938091EF038F910F900FBE0F9043
:100830001F9018954F925F926F927F928F929F9226
:10084000AF92BF92CF92DF92EF92FF920F931F93DE
:10085000CF93DF93CDB7DEB768970FB6F894DEBFBE
:100860000FBECDBF65E272E081EB94E009D588232D
:1008700009F463C08091E30381116AC01091B80448
:10088000F090B7046F2DCE01019644D56CEE72E066
:10089000CE010196F5D4082FCE01019636D500235E
:1008A00011F058DF7BC36F2DCE01019633D569E27D
:1008B00072E0CE010196E4D4082FCE01019625D531
:1008C000002311F024DF6AC3612FCE01019622D5E7
:1008D0006CEE72E0CE010196D3D4082FCE010196C2
:1008E00014D50023A9F080911003882341F06EEB0A
:1008F00071E48FEF90E060D7109210034FC36EE366
:1009000071EC8FEF90E058D781E08093100346C3DD
:10091000612FCE010196FED469E272E0CE0101960C
:10092000AFD4182FCE010196F0D4112309F436C3A9
:10093000809110038111B5CFC5CF6BE272E081EBDE
:1009400094E09ED4882341F18091E303882331F021
:1009500061EB74E084E795E0C3D420C30E94831068
:100960002FE030E040E050E00E9412116B017C016A
:1009700023E0C20ED11CE11CF11C80910202909177
:1009800003028C159D0509F409C3C601FDDCD09254
:100990000302C092020202C36FE272E081EB94E0B4
:1009A0006FD4882309F451C08091E3038111D0CF23
:1009B0006091B804CE010796ADD464E272E0CE0136
:1009C00007965ED4811112C06091B804CE010196E1
:1009D000A1D46CEE72E0CE01019652D411E08111E7
:1009E00001C010E0CE01019690D401C011E0CE010B
:1009F00007968BD4111105C0C12CD12C7601C3945C
:100A000003C081E090E058C0860126013701609163
:100A1000B804CE0101967ED4CE01019627D44B01B5
:100A20005C01CE01019671D48FEFC81AD80AE80A8A
:100A3000F80A84149504A604B7040CF4AFC281E04C
:100A400090E0A2DCC801FBD5DFCF63E372E081EB6D
:100A500094E016D4882309F452C08091E3038111F5
:100A600077CF6091B804CE01079654D464E272E067
:100A7000CE01079605D4811112C06091B804CE0151
:100A8000019648D46CEE72E0CE010196F9D311E0E4
:100A9000811101C010E0CE01019637D401C011E0F0
:100AA000CE01079632D4111105C0C12CD12C76018C
:100AB000C39404C082E090E067DC70C28601260126
:100AC00037016091B804CE01019624D4CE0101967D
:100AD000CDD34B015C01CE01019617D42FEFC21A82
:100AE000D20AE20AF20A84149504A604B7040CF4AC
:100AF00055C282E090E048DCC801A1D5DFCF67E3B2
:100B000072E081EB94E0BCD3882319F084E090E09C
:100B1000D3CF6BE372E081EB94E0B2D3882319F07A
:100B200085E090E0C9CF6FE372E081EB94E0A8D359
:100B3000882319F086E090E0BFCF63E472E081EB98
:100B400094E09ED3882319F083E190E0B5CF67E469
:100B500072E081EB94E094D3882319F087E090E071
:100B6000ABCF6BE472E081EB94E08AD3882319F079
:100B700088E090E0A1CF6FE472E081EB94E080D355
:100B8000882319F089E090E097CF63E572E081EB6C
:100B900094E076D3882319F085E190E08DCF67E566
:100BA00072E081EB94E06CD3882319F08AE090E046
:100BB00083CF6BE572E081EB94E062D3882319F078
:100BC00081E190E079CF6FE572E081EB94E058D35A
:100BD000882319F08FE090E06FCF63E672E081EB3D
:100BE00094E04ED3882319F08DE090E065CF67E65E
:100BF00072E081EB94E044D3882319F08BE090E01D
:100C00005BCF6BE672E081EB94E03AD3882319F076
:100C10008EE090E051CF6FE672E081EB94E030D34C
:100C2000882319F08CE090E047CF63E772E081EB16
:100C300094E026D3882319F082E190E03DCF67E766
:100C400072E081EB94E01CD3882319F080E190E0FE
:100C500033CF6BE772E081EB94E012D3882319F075
:100C600083E090E029CF6FE772E081EB94E008D356
:100C7000882319F086E190E01FCF63E872E081EBF2
:100C800094E0FED2882319F084E190E015CF67E864
:100C900072E081EB94E0F4D2882399F08091E30331
:100CA000811156CE8091EE03811104C08091E8033A
:100CB000882329F01092EE031092E8038BC099D696
:100CC0006DC16BE872E081EB94E0DAD2882379F1B0
:100CD0008091E30381113CCE1ADD6091B904E0906C
:100CE000B804F090B704FF2009F4B4C0EE2009F472
:100CF000EFC06111F6C06E2DCE0101960BD36F2DA2
:100D0000CE010D9607D3BE01635F7F4FCE010796DC
:100D100021D3BE016F5F7F4FCE010796D0D2A6D2FE
:100D20007B01CE010796F1D2CE010D96FFC06FE890
:100D300072E081EB94E0A4D2882379F18091E303FF
:100D4000811106CE07DD6091B904E090B804F090FF
:100D5000B704FF2009F499C0EE2009F4ECC061113A
:100D6000F3C06E2DCE010196D5D26F2DCE010D961A
:100D7000D1D2BE01635F7F4FCE010796EBD2BE0199
:100D80006F5F7F4FCE0107969AD270D27B01CE0162
:100D90000796BBD2CE010D96FCC063E972E081EBF1
:100DA00094E06ED2882359F08091E3038111D0CD75
:100DB0008091B704813309F082CFEEDCEFC067E9A0
:100DC00072E081EB94E05CD2882331F08091E30300
:100DD0008111BECDF4D5E2C06BE972E081EB94E005
:100DE0004FD2882341F18091E3038111B1CD84E199
:100DF00094E01BD2E0912604F091270480818F7E3D
:100E00008083E0912604F09127048081877F80838E
:100E1000E0912604F091270480818F778083E09110
:100E20002604F091270480818F7D808380912E0499
:100E300080932D04B3C06FE972E0CE01019692D287
:100E400061EB74E0CE0101963AD205D4CE01019651
:100E50005CD2A4C0CED5E12CF12CC701F0D32CE399
:100E60002E9DC0012F9D900D1124092E000CAA0B60
:100E7000BB0B8093EA039093EB03A093EC03B09336
:100E8000ED0381E08093EE031AC0B3D5E12CF12C81
:100E9000C701D5D32CE32E9DC0012F9D900D1124A9
:100EA000092E000CAA0BBB0B8093E4039093E5037F
:100EB000A093E603B093E70381E08093E803C701C2
:100EC0004ED380E292E03AD380E090E0B8D382CF74
:100ED0006F2DCE0101961ED2CE010196C7D17B01A6
:100EE00026C0CE01019616D26E2DCE01079612D2E3
:100EF0006F2DCE0143960ED2BE016D5E7F4FCE01A7
:100F00000D9628D2BE01695F7F4FCE010D96D7D1D5
:100F1000BE016F5F7F4FD3D1A9D17B01CE010D966A
:100F2000F4D1CE014396F1D1CE010796EED1CE0198
:100F30000196EBD192CF6F2DCE010196EBD1CE0170
:100F4000019694D17B0126C0CE010196E3D16E2D8E
:100F5000CE010796DFD16F2DCE014396DBD1BE01C6
:100F60006D5E7F4FCE010D96F5D1BE01695F7F4F5B
:100F7000CE010D96A4D1BE016F5F7F4FA0D176D177
:100F80007B01CE010D96C1D1CE014396BED1CE01DB
:100F90000796BBD1CE010196B8D17ACF68960FB62D
:100FA000F894DEBF0FBECDBFDF91CF911F910F919F
:100FB000FF90EF90DF90CF90BF90AF909F908F9079
:100FC0007F906F905F904F900895CF92DF92EF9255
:100FD000FF920F931F93CF93DF936C017A018B01E4
:100FE000C0E0D0E0CE15DF0581F0D8016D918D0114
:100FF000D601ED91FC910190F081E02DC60119958B
:10100000892B11F02196EECF7E01C701DF91CF91A0
:101010001F910F91FF90EF90DF90CF90089508956A
:1010200080E090E00895FC01538D448D252F30E041
:10103000842F90E0821B930B541710F0CF960895E5
:101040000197089584E194E05BD921E0892B09F4AC
:1010500020E0822F08950E9478130F931F93CF935F
:10106000DF93EC0188819981009729F02A813B81E7
:101070002617370788F48B016F5F7F4F0E94981205
:10108000009761F0998388831B830A832C813D81BB
:10109000232B11F4FC01108281E001C080E0DF917C
:1010A000CF911F910F910895EF92FF920F931F938D
:1010B000CF93DF936115710511F480E01BC04115DA
:1010C0005105B9F07B01EC018C819D818A01080FEB
:1010D000191FB801CE01C1DF882379F32881398136
:1010E0008C819D81B701820F931F0E948E131D83F7
:1010F0000C8381E0DF91CF911F910F91FF90EF90D2
:101100000895CF93DF93EC0188819981009711F0C6
:101110000E940F12198218821D821C821B821A8261
:10112000DF91CF910895CF93DF93EC0161157105A5
:1011300059F0FB0101900020E9F73197AF01461B00
:10114000570BB2DF811102C0CE01DBDFCE01DF9190
:10115000CF910895EF92FF920F931F93CF93DF9358
:10116000EC017B018A01BA0178DF811103C0CE0155
:10117000C8DF07C01D830C83B701888199810E9455
:101180008E13CE01DF91CF911F910F91FF90EF90C1
:101190000895EF92FF920F931F93CF93DF93EC018B
:1011A00081E0888F9B8D8C8D981305C0E889F98923
:1011B000808185FD25C0F62E0B8D10E00F5F1F4F3F
:1011C0000F731127E02E8C8DE8120BC00FB607FCB1
:1011D000FACFE889F989808185FFF5CFCE015DD905
:1011E000F2CF8B8DFE01E80FF11DE35AFF4FF08225
:1011F0009FB7F8940B8FEA89FB89808180620AC0CF
:101200009FB7F894EE89FF896083E889F989808126
:101210008370806480839FBF81E090E0DF91CF91F5
:101220001F910F91FF90EF900895CF93DF93EC0102
:10123000888D8823C1F0EA89FB89808185FD05C0FE
:10124000A889B9898C9186FD0EC00FB607FCF5CF31
:10125000808185FFF2CFA889B9898C9185FFEDCF78
:10126000CE011BD9E8CFDF91CF910895FC01808199
:101270009181009709F09BC760E070E0CB01089571
:10128000FC0124813581232B31F421E061157105A6
:10129000A1F0FB0108C0FC018081918161157105FD
:1012A00031F421E0FC018081882339F005C00E94DF
:1012B000851321E0892B09F020E0822F0895CF9338
:1012C000DF93EC01FB014481558160817181ECDE8B
:1012D000811102C0CE0115DFCE01DF91CF910895BB
:1012E000CF93DF93EC01FB018617970751F06081E4
:1012F00071816115710521F0448155812BDF01C099
:1013000000DFCE01DF91CF910895FC0180819181B2
:101310000C940F12CF93DF931F921F92CDB7DEB7BD
:10132000FC01118210821382128215821482698359
:101330001A82BE016F5F7F4FFB0101900020E9F729
:101340003197AF01461B570B05DF0F900F90DF91D0
:10135000CF910895FC0111821082138212821582AE
:101360001482BECFFC011182108213821282158278
:1013700014826115710549F0FB0101900020E9F725
:101380003197AF01461B570BE5CE08951F920F9280
:101390000FB60F9211240BB60F922F933F934F93DA
:1013A0005F936F937F938F939F93AF93BF93EF93CD
:1013B000FF9384E194E071D8FF91EF91BF91AF91D9
:1013C0009F918F917F916F915F914F913F912F915D
:1013D0000F900BBE0F900FBE0F901F9018951F928D
:1013E0000F920FB60F9211240BB60F922F938F937B
:1013F0009F93EF93FF93E0912404F0912504808163
:10140000E0912A04F0912B0482FD12C0908180911A
:101410002D048F5F8F7320912E04821751F0E0917D
:101420002D04F0E0EC5EFB4F958F80932D0401C0FE
:101430008081FF91EF919F918F912F910F900BBE23
:101440000F900FBE0F901F90189590E0FC01319700
:10145000E231F10508F04DC08827E857FF4F8F4F64
:101460003EC7809180008F7703C0809180008F7D80
:1014700080938000089580918000877FF9CF84B5A4
:101480008F7702C084B58F7D84BD08958091B000B0
:101490008F7703C08091B0008F7D8093B000089556
:1014A000809190008F7707C0809190008F7D03C05E
:1014B00080919000877F8093900008958091A00094
:1014C0008F7707C08091A0008F7D03C08091A0001E
:1014D000877F8093A0000895809120018F7707C0B7
:1014E000809120018F7D03C080912001877F8093B0
:1014F000200108952091B0002F7D2093B000009727
:1015000051F0BC0180E090E06530710581059105E6
:1015100010F00C946F0208952091B0002062209387
:10152000B000009751F0BC0180E090E0653071059B
:101530008105910510F00C946F020895009761F0F9
:10154000FC0101900020E9F73197AF01481B590BCE
:10155000BC0184E194E039CD80E090E008958F9261
:101560009F92AF92BF92CF92DF92EF92FF920F9332
:101570001F93CF93DF93CDB7DEB7A1970FB6F89443
:10158000DEBF0FBECDBF6C01990FEE08FF08F7FE5E
:1015900028C06DE284E194E0FCDD8C012227332732
:1015A000A9012C193D094E095F0919A2CE018196A6
:1015B0007C019AE0892E912CA12CB12CCA01B90191
:1015C000A50194015BD6605DF70162937F0121154F
:1015D00031054105510591F7CF01B0DF800F911F13
:1015E0001BC0A701960119A28E010F5D1F4F8AE053
:1015F000C82ED12CE12CF12CCA01B901A70196010A
:101600003DD6605DF80162938F01211531054105DA
:10161000510591F7CF0192DFA1960FB6F894DEBF86
:101620000FBECDBFDF91CF911F910F91FF90EF9033
:10163000DF90CF90BF90AF909F908F900895CF9301
:10164000DF938DDFEC0182E292E078DF8C0F9D1F4B
:10165000DF91CF910895CF93DF93FC0144815581B1
:101660006081718184E194E0B0DCEC0182E292E07F
:1016700065DF8C0F9D1FDF91CF910895CF93DF938E
:101680005DDFEC0182E292E059DF8C0F9D1FDF915C
:10169000CF910895CF93DF93282F30E0F901E25FD7
:1016A000FD4F8491F901E853FE4FD491F901EE57B3
:1016B000FE4FC491CC2389F08111C7DEEC2FF0E0FE
:1016C000EE0FFF1FE859FE4FA591B491EC91ED2369
:1016D00081E090E021F480E002C080E090E0DF91C2
:1016E000CF9108951F93CF93DF93282F30E0F90116
:1016F000E25FFD4F8491F901E853FE4FD491F90167
:10170000EE57FE4FC491CC23B9F0162F81119DDE08
:10171000EC2FF0E0EE0FFF1FE25BFE4FA591B491BE
:101720009FB7F894111104C08C91D095D82302C0B2
:10173000EC91DE2BDC939FBFDF91CF911F91089539
:10174000CF93DF9390E0FC01E853FE4F2491FC011E
:10175000EE57FE4F8491882361F190E0880F991F26
:10176000FC01EC5CFE4FC591D491FC01E25BFE4FA5
:10177000A591B491611109C09FB7F8948881209513
:1017800082238883EC912E230BC0623061F49FB7D3
:10179000F8948881322F309583238883EC912E2B07
:1017A0002C939FBF06C08FB7F894E8812E2B288317
:1017B0008FBFDF91CF9108958F929F92AF92BF928A
:1017C000CF92DF92EF92FF92CF93DF934B015C01B8
:1017D0001092700061E089E0B3DF60E089E082DFB1
:1017E00081E08093B00089E08093B10082ED809326
:1017F000B30086E48093B40088E293E28DDE84E94E
:1018000091E178DEC0E2D0E0C12CD12CE12C90E84F
:10181000F92ED501C4018C219D21AE21BF21892B38
:101820008A2B8B2B31F080E392E076DE8AE996E01A
:1018300005C080E392E070DE80E392E05BDEF69428
:10184000E794D794C794219721F780E392E064DE70
:101850008091B0008F7D8093B000DF91CF91FF9099
:10186000EF90DF90CF90BF90AF909F908F900895B2
:101870003FB7F89480917F0590918005A0918105F4
:10188000B091820526B5A89B05C02F3F19F001969F
:10189000A11DB11D3FBFBA2FA92F982F8827820FF6
:1018A000911DA11DB11DBC01CD0142E0660F771F46
:1018B000881F991F4A95D1F708958F929F92AF92F2
:1018C000BF92CF92DF92EF92FF926B017C01D0DF4B
:1018D0004B015C01C114D104E104F104E9F0C8DF5B
:1018E000DC01CB0188199909AA09BB09883E9340FC
:1018F000A105B10578F321E0C21AD108E108F10889
:1019000088EE880E83E0981EA11CB11CC114D1047E
:10191000E104F10421F7DECFFF90EF90DF90CF904C
:10192000BF90AF909F908F9008951F920F920FB627
:101930000F9211242F933F938F939F93AF93BF9355
:1019400080917B0590917C05A0917D05B0917E05ED
:1019500030917A0523E0230F2D3720F40196A11D45
:10196000B11D05C026E8230F0296A11DB11D2093CD
:101970007A0580937B0590937C05A0937D05B093B9
:101980007E0580917F0590918005A0918105B091A1
:1019900082050196A11DB11D80937F05909380055E
:1019A000A0938105B0938205BF91AF919F918F91D4
:1019B0003F912F910F900FBE0F901F901895CF93CE
:1019C000DF93C0910002D0910102C530D10519F416
:1019D00080E190E002C085E090E00E94C40164EFE5
:1019E00071E080E090E069DFCE01DF91CF910C944F
:1019F000C401CF93DF93C0910002D0910102C430A3
:101A0000D10519F487E090E002C084E090E00E94E4
:101A1000C40164EF71E080E090E04FDFCE01DF9120
:101A2000CF910C94C401CF93DF9381EB94E06DDCF4
:101A3000C4E7D5E02697CE0168DC84E0CA3BD8072E
:101A4000C9F784E795E0DF91CF915FCCCF93DF9327
:101A5000CDB7DEB768970FB6F894DEBF0FBECDBF27
:101A6000789484B5826084BD84B5816084BD85B579
:101A7000826085BD85B5816085BD80916E00816085
:101A800080936E001092810080918100826080932B
:101A9000810080918100816080938100809180002D
:101AA0008160809380008091B10084608093B10058
:101AB0008091B00081608093B0008091910082603D
:101AC000809391008091910081608093910080913A
:101AD00090008160809390008091A100826080934B
:101AE000A1008091A10081608093A1008091A0005D
:101AF00081608093A0008091210182608093210108
:101B00008091210181608093210180912001816079
:101B10008093200180917A00846080937A00809184
:101B20007A00826080937A0080917A00816080934D
:101B30007A0080917A00806880937A001092C100C8
:101B4000E0912404F091250482E08083E091200458
:101B5000F09121041082E0912204F09123048FEC93
:101B6000808310922C04E0912804F091290486E0EF
:101B70008083E0912604F091270480818061808336
:101B8000E0912604F0912704808188608083E091B1
:101B90002604F0912704808180688083E0912604E8
:101BA000F091270480818F7D808388EB92E066DD51
:101BB0008BED92E063DD61E08CE0C2DD61E08BE003
:101BC000BFDD61E08DE0BCDD61E08CE08BDD60E0DD
:101BD0008BE088DD60E08DE085DD60E087E3B0DDEF
:101BE00062E082E0ADDD61E084E0AADD0E9487036F
:101BF00081E08093E3030AEB14E094E7C92E95E0BB
:101C0000D92EB12C24E2E22E22E0F22EB80181EB93
:101C100094E066DBE092B704E092B804E092B90485
:101C20000E941A04F80124813581809178059091F1
:101C300079052817390781F58081918160917405B4
:101C400070917505009719F061157105A1F4611582
:101C5000710549F0232B91F0FB01808190E0919573
:101C60008195910909C0009749F0232B39F0FC01B7
:101C7000808190E001C049D5892B71F4B801CE0173
:101C8000019668DB6EEE72E0CE0101964CDAE3DC81
:101C9000CE0101963ADB15C0B801CE0101965ADBA0
:101CA00060E272E0CE0101963EDA64E775E007DBA0
:101CB00067EF72E038DACFDCCE01019626DBBB2479
:101CC000B3940A5F1F4FC016D10609F09FCF109240
:101CD000E303B1100E94CC0311E00FE18CE3C82EA6
:101CE000D12CE12CF12C84E194E00E948001209120
:101CF0001204181619067CF521112DC084E194E018
:101D00000E945E019091F103992301F1E091F003AB
:101D10008E3389F0AE2FB0E0AE50BC4F8C93EF5FA6
:101D2000E03218F4E093F00302C00093F003E09176
:101D3000F003E630C0F2F0E0EE50FC4F108210925B
:101D4000F1031092F00310931204CDCF8C3359F6A7
:101D50001093F103C8CF222309F445C08DEF92E020
:101D6000EDDB82EF93E08ADC6091F403CE014396D1
:101D7000D1DA6091F303CE010D96CCDA6091F203D3
:101D8000CE010196C7DABE016F5F7F4FCE01079685
:101D9000E1DABE01635F7F4FCE01079690DABE01A4
:101DA0006D5E7F4F8CDABC0181EB94E099DACE0155
:101DB0000796ABDACE010196A8DACE010D96A5DA28
:101DC000CE014396A2DA8091F5038093B704809107
:101DD000F6038093B8048091F7038093B9040E94BE
:101DE0001A04109212048091EF0354DC2091EE0348
:101DF000222381F14091EA035091EB036091EC03BF
:101E00007091ED031416150616061706FCF4892BBF
:101E100061F041505109610971094093EA035093FF
:101E2000EB036093EC037093ED036091EA03709110
:101E3000EB038091EC039091ED03A7019601F2D1A1
:101E4000C9010E946003BB24B39405C01092EE0345
:101E50000E94AA03B12C8091E9031CDC2091E803C5
:101E6000222371F14091E4035091E5036091E60370
:101E70007091E7031416150616061706ECF4892B65
:101E800061F041505109610971094093E403509395
:101E9000E5036093E6037093E7036091E4037091B8
:101EA000E5038091E6039091E703A7019601BAD17B
:101EB000C9010E94600306C01092E8030E948703D4
:101EC000BB2029F068EE73E080E090E0F6DC0E9431
:101ED0008C0109CFE4E1F4E01382128288EE93E0F2
:101EE000A0E0B0E084839583A683B78382E192E08B
:101EF0009183808385EC90E09587848784EC90E0E3
:101F00009787868780EC90E0918B808B81EC90E0C6
:101F1000938B828B82EC90E0958B848B86EC90E0A7
:101F2000978B868B118E128E138E148E64E272E064
:101F300084E795E017DA65E272E08AEB94E012DA62
:101F40006BE272E080EC94E00DDA6FE272E086EC16
:101F500094E008DA63E372E08CEC94E003DA67E380
:101F600072E082ED94E0FED96BE372E088ED94E0DC
:101F7000F9D96FE372E08EED94E0F4D963E472E096
:101F800084EE94E0EFD967E472E08AEE94E0EAD957
:101F90006BE472E080EF94E0E5D96FE472E086EFE5
:101FA00094E0E0D963E572E08CEF94E0DBD967E57B
:101FB00072E082E095E0D6D96BE572E088E095E0CA
:101FC000D1D96FE572E08EE095E0CCD96BE772E095
:101FD00084E195E0C7D963E672E08AE195E0C2D971
:101FE00067E672E080E295E0BDD96BE672E086E2DA
:101FF00095E0B8D96FE672E08CE295E0B3D963E77B
:1020000072E082E395E0AED967E772E088E395E09D
:10201000A9D96BE772E08EE395E0A4D96FE772E08F
:1020200084E495E09FD963E872E08AE495E09AD968
:1020300067E872E080E595E095D96BE872E086E5A7
:1020400095E090D96FE872E08CE595E08BD963E973
:1020500072E082E695E086D967E972E088E695E06D
:1020600081D96BE972E08EE695E07CD964E272E09A
:1020700081EB94E077C98F929F92AF92BF92CF92FB
:10208000DF92EF92FF92CF93DF93EC016881798129
:102090008A819B81611571058105910521F464E2B6
:1020A00079ED8BE597E02DE133EF41E050E0BAD0D8
:1020B00049015A019B01AC01A7EAB1E4CFD06B0101
:1020C0007C01ACEEB4EFA5019401D4D0DC01CB01CE
:1020D0008C0D9D1DAE1DBF1DB7FF03C00197A1094B
:1020E000B04888839983AA83BB83BC01CD019F77C5
:1020F000DF91CF91FF90EF90DF90CF90BF90AF90A6
:102100009F908F9008958F929F92AF92BF92CF929F
:10211000DF92EF92FF92609104027091050280912C
:10212000060290910702611571058105910521F460
:1021300064E279ED8BE597E02DE133EF41E050E08B
:1021400071D049015A019B01AC01A7EAB1E486D0E4
:102150006B017C01ACEEB4EFA50194018BD0DC01E6
:10216000CB018C0D9D1DAE1DBF1DB7FF03C0019798
:10217000A109B0488093040290930502A09306023F
:10218000B0930702BC01CD019F77FF90EF90DF90E5
:10219000CF90BF90AF909F908F900895609304026E
:1021A00070930502809306029093070208951F938F
:1021B000FC0199278827BC01E89411911032E9F3BA
:1021C000193010F01E30C8F31B3249F01D3241F4B3
:1021D000689405C012D0610F711D811D911D119170
:1021E00010531A30B8F33EF4909580957095619530
:1021F0007F4F8F4F9F4F1F910895592F482F372F93
:10220000262F660F771F881F991F660F771F881F5D
:10221000991F620F731F841F951F660F771F881FFA
:10222000991F0895052E97FB16F400940FD057FDC3
:1022300005D024D007FC02D046F408C05095409544
:10224000309521953F4F4F4F5F4F08959095809562
:10225000709561957F4F8F4F9F4F089531D0A59F07
:10226000900DB49F900DA49F800D911D1124089591
:10227000B7FFF4CFF3DF821B930B0895A1E21A2E70
:10228000AA1BBB1BFD010DC0AA1FBB1FEE1FFF1F1A
:10229000A217B307E407F50720F0A21BB30BE40B6A
:1022A000F50B661F771F881F991F1A9469F76095B1
:1022B0007095809590959B01AC01BD01CF0108956B
:1022C000A29FB001B39FC001A39F700D811D112477
:1022D000911DB29F700D811D1124911D0895EE0F67
:1022E000FF1F881F8BBF0790F691E02D19940F9365
:1022F0001F93CF93DF938230910510F482E090E03A
:10230000E0918505F091860520E030E0A0E0B0E0A6
:10231000309719F140815181028113814817590783
:10232000C8F08417950769F4109731F012960C9352
:10233000129713961C9327C000938505109386056A
:1023400022C02115310519F04217530718F49A01DC
:10235000BD01EF01DF01F801DBCF21153105F9F0F7
:10236000281B390B2430310580F48A819B8161154B
:10237000710521F0FB019383828304C0909386054D
:1023800080938505FE01329644C0FE01E20FF31FE3
:102390008193919322503109398328833AC0209147
:1023A000830530918405232B41F420910A0230915A
:1023B0000B0230938405209383052091080230910D
:1023C00009022115310541F42DB73EB740910C02A9
:1023D00050910D02241B350BE0918305F09184058B
:1023E000E217F307A0F42E1B3F0B2817390778F0EC
:1023F000AC014E5F5F4F2417350748F04E0F5F1F4B
:1024000050938405409383058193919302C0E0E04B
:10241000F0E0CF01DF91CF911F910F910895CF93FD
:10242000DF93009709F481C0FC0132971382128276
:10243000A0918505B0918605109781F420813181A6
:10244000820F931F20918305309184052817390747
:1024500051F5F0938405E093830567C0ED0120E01A
:1024600030E0CE17DF0740F44A815B819E014115C1
:102470005105F1F0EA01F5CFD383C2834081518148
:10248000840F951FC817D90759F488819981840F43
:10249000951F0296918380838A819B819383828397
:1024A0002115310529F4F0938605E09385053DC09B
:1024B000E901FB83EA8349915991C40FD51FEC17B9
:1024C000FD0761F480819181840F951F0296E901D7
:1024D00099838883828193819B838A83E0E0F0E003
:1024E00012968D919C911397009719F0FD01DC01D4
:1024F000F7CF8D919C9111979D012E5F3F4F820FD9
:10250000931F20918305309184052817390769F4BA
:10251000309729F4109286051092850502C0138227
:102520001282B0938405A0938305DF91CF91089523
:102530006F927F928F929F92AF92BF92CF92DF92D3
:10254000EF92FF920F931F93CF93DF93009781F445
:10255000CB01DF91CF911F910F91FF90EF90DF9012
:10256000CF90BF90AF909F908F907F906F90BFCE95
:10257000FC01E60FF71F9C0122503109E217F30717
:1025800008F4A5C0EC01D9010D911C911197061713
:102590001707A8F00530110508F497C0C801049783
:1025A0008617970708F491C002501109061B170BF4
:1025B000019311936D937C93CF0131DF86C05B0152
:1025C000A01AB10A4C01800E911EA0918505B09110
:1025D0008605612C712CE12CF12C109709F446C072
:1025E0008D919C911197A815B905B1F56C0142E048
:1025F000C40ED11CCA14DB0478F14C018A189B0864
:10260000640142E0C40ED11C1296BC90129713963E
:10261000AC91B5E0CB16D10440F0B282A383918295
:102620008082D9016D937C9309C00E5F1F4F800F8C
:10263000911FF90191838083EB2DFA2FE114F104AE
:1026400031F0D7011396FC93EE9312973EC0F093AE
:102650008605E093850539C06816790608F43C01C3
:102660007D0112960D90BC91A02DB7CF809183056E
:102670009091840588169906E1F466167706C8F4E9
:102680008091080290910902009741F48DB79EB79E
:1026900040910C0250910D02841B950BE817F9072D
:1026A000B0F4F0938405E0938305F90171836083AE
:1026B0000CC0CB011CDE7C01009749F0A801BE01D3
:1026C0001BD0CE01ACDEC70104C0CE0102C080E049
:1026D00090E0DF91CF911F910F91FF90EF90DF90ED
:1026E000CF90BF90AF909F908F907F906F90089504
:1026F00081E090E0F89419C0FB01DC0102C0019078
:102700000D9241505040D8F70895FB01DC018D91A6
:10271000019080190110D9F3990B0895FB01DC0198
:1027200001900D920020E1F7089511E0CBE2D1E095
:1027300000E005C0802FFE01D2DD2196011DCC32C4
:0C274000D10780E00807B1F7F894FFCF44
:10274C000700FFFF0100000000008705800000006B
:10275C000000C908E5071308150980015E01720124
:10276C003A000D0A00505752003100524E440042BC
:10277C0055500042444E005245440047524E0042D0
:10278C004C5500464C41004F5241004247520056B6
:10279C00494F004641440059454C00435941004CB7
:1027AC00564900594752004C545500545552004458
:1027BC004D41004D4147004C47520057484900538A
:1027CC0046410053464C0043544D0054464D005472
:1027DC004E4D00455252005355430053544F004345
:1027EC006F6D6D616E64206E6F74207265636F67C0
:1027FC006E697A65643A2000436F6D70696C652070
:10280C00446174653A204A616E203138203230318F
:10281C00392031393A34393A323300474343205660
:10282C00657273696F6E3A20352E342E3000235347
:10283C0055434345535300234641494C004461746E
:10284C0061207265636965766564202E2E2E2000EA
:020000023000CC
:10E000000D9489F10D94B2F10D94B2F10D94B2F129
:10E010000D94B2F10D94B2F10D94B2F10D94B2F1F0
:10E020000D94B2F10D94B2F10D94B2F10D94B2F1E0
:10E030000D94B2F10D94B2F10D94B2F10D94B2F1D0
:10E040000D94B2F10D94B2F10D94B2F10D94B2F1C0
:10E050000D94B2F10D94B2F10D94B2F10D94B2F1B0
:10E060000D94B2F10D94B2F10D94B2F10D94B2F1A0
:10E070000D94B2F10D94B2F10D94B2F10D94B2F190
:10E080000D94B2F10D94B2F10D94B2F10D94B2F180
:10E090000D94B2F10D94B2F10D94B2F10D94B2F170
:10E0A0000D94B2F10D94B2F10D94B2F10D94B2F160
:10E0B0000D94B2F10D94B2F10D94B2F10D94B2F150
:10E0C0000D94B2F10D94B2F10D94B2F10D94B2F140
:10E0D0000D94B2F10D94B2F10D94B2F10D94B2F130
:10E0E0000D94B2F141546D656761323536300041AF
:10E0F000726475696E6F206578706C6F72657220DE
:10E1000073746B3530305632206279204D4C530099
:10E11000426F6F746C6F616465723E004875683F52
:10E1200000436F6D70696C6564206F6E203D200048
:10E130004350552054797065202020203D20005FF9
:10E140005F4156525F415243485F5F3D2000415658
:10E1500052204C696243205665723D20004743437C
:10E160002056657273696F6E203D20004350552024
:10E1700049442020202020203D20004C6F7720663D
:10E18000757365202020203D20004869676820665F
:10E190007573652020203D200045787420667573D6
:10E1A00065202020203D20004C6F636B2066757336
:10E1B000652020203D20004D617220203720323024
:10E1C000313300312E362E3800342E332E350056A2
:10E1D00023202020414444522020206F7020636F70
:10E1E00064652020202020696E73747275637469E1
:10E1F0006F6E2061646472202020496E74657272B3
:10E20000757074006E6F20766563746F7200726A49
:10E210006D702020006A6D70200057686174207056
:10E220006F72743A00506F7274206E6F7420737541
:10E2300070706F72746564004D7573742062652030
:10E2400061206C6574746572002000577269747483
:10E25000696E672045450052656164696E672045B7
:10E26000450045452065727220636E743D00504F35
:10E27000525400303D5A65726F2061646472003FF1
:10E280003D43505520737461747300403D454550C3
:10E29000524F4D207465737400423D426C696E6B41
:10E2A000204C454400453D44756D70204545505215
:10E2B0004F4D00463D44756D7020464C415348001B
:10E2C000483D48656C70004C3D4C69737420492F83
:10E2D0004F20506F72747300513D51756974005234
:10E2E0003D44756D702052414D00563D73686F7707
:10E2F00020696E7465727275707420566563746FF0
:10E30000727300593D506F727420626C696E6B00BD
:10E310002A0011241FBECFEFD1E2DEBFCDBF01E046
:10E320000CBF12E0A0E0B2E0EEE1FDEF03E00BBFB6
:10E3300002C007900D92A030B107D9F712E0A0E01B
:10E34000B2E001C01D92AE30B107E1F70F9460F367
:10E350000D948DFE01E20EBF0FEF0DBF11241FBE05
:10E360000D9460F30D9400F020E030E040ED57E0B4
:10E3700005C0FA013197F1F72F5F3F4F2817390792
:10E38000C0F308959C01260F311DC901A0E0B0E043
:10E390002F5F3F4FABBFFC018791882361F08093D3
:10E3A000C6008091C00086FFFCCF8091C0008064D1
:10E3B0008093C000EACF08958DE08093C6008091DD
:10E3C000C00086FFFCCF8091C00080648093C000B5
:10E3D0008AE08093C6008091C00086FFFCCF8091C8
:10E3E000C00080648093C00008950F94C2F10F9420
:10E3F000DCF10895FC019081992359F09093C600B7
:10E400008091C00086FFFCCF8091C0008064809323
:10E41000C0003196992379F70895282F982F929567
:10E420009F70892F805D8A3308F0895F8093C600D2
:10E430008091C00086FFFCCF8091C00080648093F3
:10E44000C000822F8F70982F905D9A3308F0995FEB
:10E450009093C6008091C00086FFFCCF8091C000E1
:10E4600080648093C00008959C01FB01853691056E
:10E470001CF46330710594F0C90164E670E00F94F8
:10E480002EFE605D7F4F6093C6008091C00086FFC6
:10E49000FCCF8091C00080648093C0002B30310598
:10E4A00014F43297B4F0C90164E670E00F942EFEC4
:10E4B0006AE070E00F942EFE605D7F4F6093C600AF
:10E4C0008091C00086FFFCCF8091C0008064809363
:10E4D000C000C9016AE070E00F942EFEC0968093E0
:10E4E000C6008091C00086FFFCCF8091C000806490
:10E4F0008093C00008951F93182F8EE692EE60E07F
:10E500000F94C2F11093C6008091C00086FFFCCF2B
:10E510008091C00080648093C0000F94DCF11F9153
:10E5200008952F923F924F925F926F927F928F92B7
:10E530009F92AF92BF92CF92DF92EF92FF920F9392
:10E540001F93DF93CF93CDB7DEB762970FB6F894E2
:10E55000DEBF0FBECDBF382E622ECA01DB015C01CB
:10E560006D01772420E2222E2E010894411C511CBB
:10E570008BC081E0A81680E0B80681E0C80680E084
:10E58000D80628F0C601AA27BB270F940DF2BB2797
:10E59000AD2D9C2D8B2D0F940DF28A2D0F940DF225
:10E5A0002092C6008091C00086FFFCCF8091C00001
:10E5B00080648093C0009DE29093C6008091C0006B
:10E5C00086FFFCCF8091C00080648093C0002092C1
:10E5D000C6008091C00086FFFCCF8091C00080649F
:10E5E0008093C00019828601750188249924A1E0D6
:10E5F0003A1651F03A1620F0B2E03B1661F409C029
:10E600000BBFF701779007C0C7010F9477FE782EF4
:10E6100002C0F7017080872D0F940DF22092C60082
:10E620008091C00086FFFCCF8091C0008064809301
:10E63000C000872D8052F401EF70F0708F3520F408
:10E64000E40DF51D708204C0E40DF51D8EE280839B
:10E650000894E11CF11C011D111D0894811C911CE2
:10E6600090E18916910409F0C2CF80E190E0A0E02A
:10E67000B0E0A80EB91ECA1EDB1E198AC2010F9493
:10E68000FAF10F94DCF16A94662009F072CF629679
:10E690000FB6F894DEBF0FBECDBFCF91DF911F91B3
:10E6A0000F91FF90EF90DF90CF90BF90AF909F9031
:10E6B0008F907F906F905F904F903F902F90089534
:10E6C0002F923F924F925F926F927F928F929F9282
:10E6D000AF92BF92CF92DF92EF92FF920F931F9370
:10E6E000DF93CF93CDB7DEB7CD53D1400FB6F894BB
:10E6F000DEBF0FBECDBF01E20EBF0FEF0DBF94B75F
:10E70000F894A89514BE80916000886180936000A1
:10E7100010926000789493FF05C0E0910002F091A0
:10E7200001021995279A2F9A8091C00082608093E8
:10E73000C00080E18093C40088E18093C1000000A4
:10E74000EE24FF24870144E0A42EB12CCC24DD2448
:10E7500024C0C5010197F1F70894E11CF11C011DCB
:10E76000111D21E2E2162EE4F20620E0020720E06D
:10E77000120718F031E0C32ED12CC801B70127ECE5
:10E780003BE140E050E00F9441FE611571058105C9
:10E79000910519F485B1805885B98091C00087FD35
:10E7A00003C0C114D104A9F2A6014F5F5F4FC25E3E
:10E7B000DE4F59834883CE51D140C25EDE4F8881FF
:10E7C0009981CE51D140019711F00D9410FEC05D9A
:10E7D000DE4F19821882C053D14060E0C15DDE4F28
:10E7E0001882CF52D14088249924C35DDE4F19820C
:10E7F0001882CD52D140C05EDE4F188219821A8233
:10E800001B82C052D140CE5CDE4F188219821A8220
:10E810001B82C253D140EE24FF2487010BBFF701B6
:10E8200007911691C45CDE4F19830883CC53D14005
:10E830000D940BFEC25EDE4F28813981CE51D1404E
:10E840002130310509F52091C600C25EDE4F1982E4
:10E850001882CE51D14022C02F5F3F4F4F4F5F4FA4
:10E86000213082E138078AE7480780E0580780F0C6
:10E87000C45CDE4FE881F981CC53D140EF5FFF4F9C
:10E8800019F0EE27FF27099420E030E040E050E047
:10E890008091C00087FFE0CF2091C600C35DDE4FAE
:10E8A00048815981CD52D1404F5F5F4FC35DDE4FEC
:10E8B00059834883CD52D140213209F063C64A3092
:10E8C000510508F05FC60894811C911C53E0851621
:10E8D000910409F059C600E010E018C081E280936D
:10E8E000C6008091C00086FFFCCF8091C00080648C
:10E8F0008093C0002F5F3F4F2931310579F70F9486
:10E90000DCF10F5F1F4F0530110519F020E030E0FA
:10E91000E5CF10920A0210920B0210920C02109294
:10E920000D02109206021092070210920802109235
:10E930000902109202021092030210920402109235
:10E9400005028FEE90EE60E00F94F5F180E191EE1C
:10E9500060E00F94C2F18091C00087FFFCCF9091DE
:10E96000C600903608F09F759032B8F09093C600BC
:10E970008091C00086FFFCCF8091C00080648093AE
:10E98000C000A0E2A093C6008091C00086FFFCCF2B
:10E990008091C00080648093C000983409F4D7C18E
:10E9A0009934B8F4923409F459C1933458F490333B
:10E9B00019F1903308F4E3C59F33A1F1903409F0C5
:10E9C000DEC5BDC0953409F470C1963409F0D7C5D1
:10E9D00098C1923509F42BC2933538F49C3409F46C
:10E9E000F5C1913509F0CBC518C2963509F445C279
:10E9F000993509F0C4C567C483E792EE62E00F94CD
:10EA0000F5F110920602109207021092080210927D
:10EA1000090210920A0210920B0210920C0210923C
:10EA20000D0213C18FE792EE62E00F94F5F18FEEC5
:10EA300090EE60E00F94F5F181E291EE60E00F94CA
:10EA4000C2F187EB91EE60E00F94F5F180E391EE77
:10EA500060E00F94C2F184EE90EE60E00F94F5F167
:10EA60008FE391EE60E00F94C2F186E090E061E008
:10EA700070E00F9434F20F94DCF18DE591EE60E0DC
:10EA80000F94C2F189EC91EE60E00F94F5F18EE401
:10EA900091EE60E00F94C2F183EC91EE60E00F9490
:10EAA000F5F18CE691EE60E00F94C2F18EE10F94E7
:10EAB0000DF288E90F940DF281E00F940DF20F949E
:10EAC000DCF18BE791EE60E00F94C2F119E0E0E039
:10EAD000F0E010935700E4918E2F0F940DF20F94F5
:10EAE000DCF18AE891EE60E00F94C2F1E3E0F0E03F
:10EAF00010935700E4918E2F0F940DF20F94DCF1D8
:10EB000089E991EE60E00F94C2F1E2E0F0E0109349
:10EB10005700E4918E2F0F940DF20F94DCF188EAE8
:10EB200091EE60E00F94C2F1E1E0F0E01093570045
:10EB30001491812F0F940DF20F94DCF107CF8BE825
:10EB400092EE62E00F94F5F18BE492EE60E00F94A8
:10EB5000F5F10F94DCF100E010E019C0C8016F2D51
:10EB60000F947FFEFF2031F489E492EE60E00F9471
:10EB7000C2F10BC0F092C6008091C00086FFFCCFAE
:10EB80008091C00080648093C0000F5F1F4FC80158
:10EB900081519F41A0E0B0E0ABBFFC01F790BAE229
:10EBA000FB1621F0E2E000301E07C1F60F94DCF105
:10EBB0000F94DCF187E592EE60E00F94F5F10F948D
:10EBC000DCF1CC24DD2400E010E01EC0C8010F946D
:10EBD00077FEF82E882331F489E492EE60E00F94FA
:10EBE000C2F10BC08093C6008091C00086FFFCCFAD
:10EBF0008091C00080648093C000FE1419F00894D6
:10EC0000C11CD11C0F5F1F4FC80181519F41A0E063
:10EC1000B0E0ABBFFC01E790FAE2EF1621F022E092
:10EC20000030120799F60F94DCF10F94DCF182E6C4
:10EC300092EE60E00F94C2F1C60161E070E00F94C3
:10EC400034F20F94DCF10F94DCF110920202109276
:10EC50000302109204021092050278CE89E992EE26
:10EC600062E00F94F5F1279A2F9A16C02F9880E052
:10EC700090E0E0EDF7E03197F1F7019684369105E9
:10EC8000C1F72F9A80E090E0E0EDF7E03197F1F7DF
:10EC9000019684369105C1F78091C00087FFE6CFC9
:10ECA0008091C00087FFFCCF64C485EA92EE62E0E9
:10ECB0000F94F5F140910202509103026091040219
:10ECC0007091050281E020E10F9491F2809102029F
:10ECD00090910302A0910402B091050280509F4FD1
:10ECE000AF4FBF4F8093020290930302A0930402A0
:10ECF000B093050280509041A040B04008F426CE69
:10ED0000A4CF83EB92EE62E00F94F5F140910602FE
:10ED100050910702609108027091090280E020E1A1
:10ED20000F9491F28091060290910702A09108023F
:10ED3000B091090280509F4FAF4FBF4F80930602A2
:10ED400090930702A0930802B0930902FFCD80ECD4
:10ED500092EE62E00F94F5F183E792EE60E00F949B
:10ED6000F5F18FE792EE60E00F94F5F18BE892EE0B
:10ED700060E00F94F5F189E992EE60E00F94F5F10F
:10ED800085EA92EE60E00F94F5F183EB92EE60E09D
:10ED90000F94F5F180EC92EE60E00F94F5F187ECC2
:10EDA00092EE60E00F94F5F188ED92EE60E00F9442
:10EDB000F5F18FED92EE60E00F94F5F18AEE92EEB0
:10EDC00060E00F94F5F183E093EEBDCD87EC92EE19
:10EDD00062E00F94F5F181E40F947BF282E40F94EA
:10EDE0007BF283E40F947BF284E40F947BF285E45E
:10EDF0000F947BF286E40F947BF287E40F947BF20E
:10EE000088E40F947BF28AE40F947BF28BE40F94F6
:10EE10007BF28CE40F947BF299CD88ED92EE62E068
:10EE20000F94F5F1772473948824992409C48FED05
:10EE300092EE62E00F94F5F140910A0250910B02BC
:10EE400060910C0270910D0282E020E10F9491F22A
:10EE500080910A0290910B02A0910C02B0910D02D8
:10EE600080509F4FAF4FBF4F80930A0290930B0289
:10EE7000A0930C02B0930D0269CD8AEE92EE62E08F
:10EE80000F94F5F184EE90EE60E00F94F5F18FECC5
:10EE900091EE60E00F94F5F1662477244301CC5D98
:10EEA000DE4F19821882C452D140D401C301B695F5
:10EEB000A79597958795CA5DDE4F88839983AA8326
:10EEC000BB83C652D140CC5DDE4FA881B981C4520C
:10EED000D1401196CC5DDE4FB983A883C452D14096
:10EEE000CD0162E070E00F9434F2B0E2B093C6005E
:10EEF0008091C00086FFFCCF8091C0008064809329
:10EF0000C000EDE2E093C6008091C00086FFFCCF18
:10EF10008091C00080648093C000F0E2F093C6004E
:10EF20008091C00086FFFCCF8091C00080648093F8
:10EF3000C000CA5DDE4FE880F9800A811B81C6529D
:10EF4000D140BB27A12F902F8F2D0F940DF2CA5DBA
:10EF5000DE4F8881C652D1400F940DF2B0E2FB2EF5
:10EF6000F092C6008091C00086FFFCCF8091C00067
:10EF700080648093C0000DE30093C6008091C000C0
:10EF800086FFFCCF8091C00080648093C00010E2B7
:10EF90001093C6008091C00086FFFCCF8091C00016
:10EFA00080648093C0008BBEF3012791C65DDE4F65
:10EFB0002883CA52D140A22EBB24CC24DD2408943D
:10EFC000611C711C811C911C8BBEF3018791282E42
:10EFD0003324442455240894611C711C811C911C09
:10EFE0008BBEF3013791C55DDE4F3883CB52D140E4
:10EFF0000894611C711C811C911C8BBEF30147910C
:10F00000C45DDE4F4883CC52D140ADEFEA2EAFEF66
:10F01000FA2EAFEF0A2FAFEF1A2F6E0C7F1C801E57
:10F02000911E142D032DF22CEE24EA0CFB1C0C1D5A
:10F030001D1D0F940DF220E22093C6008091C000A8
:10F0400086FFFCCF8091C00080648093C000C65DC5
:10F05000DE4F8881CA52D1400F940DF230E23093D6
:10F06000C6008091C00086FFFCCF8091C000806404
:10F070008093C000C45DDE4F8881CC52D1400F9494
:10F080000DF240E24093C6008091C00086FFFCCFA5
:10F090008091C00080648093C000C55DDE4F888190
:10F0A000CB52D1400F940DF250E25093C6008091A4
:10F0B000C00086FFFCCF8091C00080648093C000B8
:10F0C0008FEFE8168FEFF80680E0080780E018075A
:10F0D00031F484E092EE60E00F94C2F1DFC0D80119
:10F0E000C7018070907CA070B0708050904CA040A0
:10F0F000B040D1F52FEF3FE340E050E0E222F322B1
:10F1000004231523CA5DDE4FA880B980CA80DB8046
:10F11000C652D140AE0CBF1CC01ED11EAA0CBB1CD7
:10F12000CC1CDD1C8EE092EE60E00F94C2F1BB2798
:10F13000A12F902F8F2D0F940DF28E2D0F940DF285
:10F1400030E23093C6008091C00086FFFCCF8091F2
:10F15000C00080648093C0004EE34093C60080915D
:10F16000C00086FFFCCF87C08EE09EEFA0E0B0E03D
:10F17000E822F9220A231B239CE0E91694E9F90608
:10F1800090E0090790E0190709F088C0C45DDE4FE0
:10F19000A881CC52D140EA2EFF2400E010E0102FCD
:10F1A0000F2DFE2CEE24C55DDE4FB881CB52D14031
:10F1B000EB0EF11C011D111DD601C501817090706F
:10F1C000A070B070DC0199278827E80EF91E0A1F8D
:10F1D0001B1F20EF30E040E050E0A222B322C42207
:10F1E000D52241E1AA0CBB1CCC1CDD1C4A95D1F7F1
:10F1F000EA0CFB1C0C1D1D1D81E090E0A0E0B0E0BE
:10F20000282239224A225B2235E1220C331C441C7D
:10F21000551C3A95D1F7E20CF31C041D151D57013E
:10F220006801AA0CBB1CCC1CDD1C85E192EE60E0E1
:10F230000F94C2F1C801AA27BB270F940DF2BB2778
:10F24000A12F902F8F2D0F940DF28E2D0F940DF274
:10F2500090E29093C6008091C00086FFFCCF809121
:10F26000C00080648093C000AEE3A093C60080918C
:10F27000C00086FFFCCF8091C00080648093C000F6
:10F28000C601AA27BB270F940DF2BB27AD2D9C2DDD
:10F290008B2D0F940DF28A2D0F940DF20F94DCF14B
:10F2A000CC5DDE4FE881F981C452D140F99709F471
:10F2B0004DCBF4E0EF2EF12C012D112D6E0C7F1CA7
:10F2C000801E911EF2CD83E093EE62E00F94F5F183
:10F2D0008AE192EE60E00F94C2F18091C00087FF56
:10F2E000FCCF1091C6001F751093C6008091C0001E
:10F2F00086FFFCCF8091C00080648093C0000F9493
:10F30000DCF1812F81548A3108F036C1163409F4BA
:10F3100095C0173490F4133409F44EC0143430F40B
:10F320001134F1F0123409F01DC130C0143409F465
:10F3300059C0153409F016C16BC01A3409F4C4C0A1
:10F340001B3438F4173409F48FC0183409F00AC19B
:10F35000A1C01B3409F4D2C01C3409F003C1E8C0B9
:10F360008FEF81B90DC082B1809582B980E090E0C5
:10F37000E0EDF7E03197F1F70196883C9105C1F790
:10F380008091C00087FFEFCF12B8EFC08FEF84B934
:10F390000DC085B1809585B980E090E0E0EDF7E0A3
:10F3A0003197F1F70196883C9105C1F78091C00033
:10F3B00087FFEFCF15B8D9C08FEF87B90DC088B1DF
:10F3C000809588B980E090E0E0EDF7E03197F1F7C3
:10F3D0000196883C9105C1F78091C00087FFEFCF6F
:10F3E00018B8C3C08FEF8AB90DC08BB180958BB9A7
:10F3F00080E090E0E0EDF7E03197F1F70196883C8E
:10F400009105C1F78091C00087FFEFCF1BB8ADC059
:10F410008FEF8DB90DC08EB180958EB980E090E0F0
:10F42000E0EDF7E03197F1F70196883C9105C1F7DF
:10F430008091C00087FFEFCF1EB897C08FEF80BBD1
:10F440000DC081B3809581BB80E090E0E0EDF7E0F6
:10F450003197F1F70196883C9105C1F78091C00082
:10F4600087FFEFCF11BA81C08FEF83BB0DC084B38C
:10F47000809584BB80E090E0E0EDF7E03197F1F714
:10F480000196883C9105C1F78091C00087FFEFCFBE
:10F4900014BA6BC08FEF809301010FC080910201FD
:10F4A00080958093020180E090E0E0EDF7E03197F5
:10F4B000F1F70196883C9105C1F78091C00087FF64
:10F4C000EDCF1092020151C08FEF809304010FC065
:10F4D0008091050180958093050180E090E0E0ED4A
:10F4E000F7E03197F1F70196883C9105C1F78091DB
:10F4F000C00087FFEDCF1092050137C08FEF8093DA
:10F5000007010FC08091080180958093080180E079
:10F5100090E0E0EDF7E03197F1F70196883C910536
:10F52000C1F78091C00087FFEDCF109208011DC088
:10F530008FEF80930A010FC080910B01809580931B
:10F540000B0180E090E0E0EDF7E03197F1F70196F4
:10F55000883C9105C1F78091C00087FFEDCF1092E4
:10F560000B0103C085E292EEEEC98091C00087FFD7
:10F57000FCCF8091C600EAC988E392EEE4C98CE131
:10F5800091EEE1C988249924933011F1943028F444
:10F59000913089F09230B8F408C0953061F195301F
:10F5A000F0F0963009F048C043C02B3109F042C951
:10F5B00091E06BE13FC96227C15DDE4F2883CF52E6
:10F5C000D14092E037C9B22FA0E0622793E032C960
:10F5D000822F90E0A82BB92B622794E02BC92E3004
:10F5E00009F039C3622795E0C05DDE4F19821882A9
:10F5F000C053D1401FC9E1E0F0E0EC0FFD1FC05D3A
:10F60000DE4F08811981C053D140E00FF11F2083E4
:10F610000F5F1F4FC05DDE4F19830883C053D14079
:10F6200062270A171B0709F005C9D80196E002C92D
:10F63000261709F010C303C0973009F0FBC87724E0
:10F640009981933109F412C19431C8F4963009F4C8
:10F65000D8C0973050F4923009F406C1933009F4C1
:10F660006DC0913009F059C253C0913109F477C08F
:10F67000923108F0BBC0903109F04FC2F5C098310B
:10F6800009F487C0993150F4953109F4EFC09531F0
:10F6900008F4C6C1963109F040C2C2C19A3109F4DA
:10F6A0006CC09A3108F491C09B3109F45BC09D3164
:10F6B00009F033C29D81903359F48F81882311F46E
:10F6C0009EE11CC0813011F091E018C098E916C08D
:10F6D000892F807591F0903539F4E0E0F0E089E011
:10F6E0008093570094910AC0983539F4E3E0F0E034
:10F6F00089E080935700949101C090E01A821B82A8
:10F700008D818C831D829E831F8227E030E009C299
:10F710001A8288E08B8381E48C8386E58D8382E581
:10F720008E8389E48F8383E5888780E589878FE5E9
:10F730008A8782E38B872BE030E0F3C18A818139AD
:10F7400041F0823941F0803911F48FE005C080E04A
:10F7500003C082E001C08AE01A828B8344C0772410
:10F76000739482C08D81882311F48EE12CC0813086
:10F7700011F081E028C088E926C01A82E1E0F0E0BB
:10F7800089E08093570084918B831C8224E030E0D1
:10F79000C8C18B81803589F48C81883039F4E2E0EE
:10F7A000F0E089E08093570084910DC0E0E0F0E044
:10F7B00089E080935700849106C0E3E0F0E089E09F
:10F7C0008093570084911A82DFCF8D81836C99E0FA
:10F7D000E1E0F0E0082E90935700E89507B600FCB2
:10F7E000FDCF1A821B8223E030E09BC180EC8A832C
:10F7F000CE5CDE4F188219821A821B82C253D1401E
:10F800008EC18A8190E0A0E0B0E0582F44273327D2
:10F8100022278B8190E0A0E0B0E0DC0199278827C7
:10F82000282B392B4A2B5B2B8D8190E0A0E0B0E098
:10F83000282B392B4A2B5B2B8C8190E0A0E0B0E089
:10F84000BA2FA92F982F8827282B392B4A2B5B2BCF
:10F85000220F331F441F551FC05EDE4F288339839C
:10F860004A835B83C052D1401A8259C13A81C95C34
:10F87000DE4F3883C753D140CA5CDE4F1882C6536F
:10F88000D1408B81C82EDD24CA5CDE4F488159816E
:10F89000C653D140C42AD52A933109F082C0CE5C28
:10F8A000DE4F88819981AA81BB81C253D1408050AB
:10F8B000904CA340B04030F583E0CE5CDE4FE88052
:10F8C000F9800A811B81C253D140F70100935B008C
:10F8D00080935700E89507B600FCFDCFCE5CDE4F65
:10F8E000088119812A813B81C253D14000501F4FAA
:10F8F0002F4F3F4FCE5CDE4F088319832A833B8313
:10F90000C253D140C05EDE4F488159816A817B81FC
:10F91000C052D140DE011B9631E08C9111962C91A2
:10F9200011971296C75CDE4F2883C953D140C85C3B
:10F93000DE4F1882C853D14090E0C85CDE4FE881AA
:10F94000F981C853D1408E2B9F2B0C01FA01609393
:10F950005B0030935700E89511244E5F5F4F6F4F67
:10F960007F4F0EEFE02E0FEFF02ECE0CDF1CC114F8
:10F97000D10499F685E0C05EDE4F088119812A81A5
:10F980003B81C052D140F80120935B008093570027
:10F99000E89507B600FCFDCF81E180935700E8951C
:10F9A00035C0C05EDE4F88819981AA81BB81C0527B
:10F9B000D140B695A795979587957C018601ABE0D8
:10F9C000AA2EB12CAC0EBD1E0BC0D5016D915D01F0
:10F9D000C7010F947FFE0894E11CF11C01501040F8
:10F9E0000115110591F7A60160E070E0440F551F65
:10F9F000661F771FC05EDE4FE880F9800A811B8199
:10FA0000C052D1404E0D5F1D601F711F1A82C05E33
:10FA1000DE4F488359836A837B83C052D1407FC0C5
:10FA2000FA80C55CDE4FF882CB53D140C65CDE4F16
:10FA30001882CA53D1408B81C82EDD24C65CDE4FAC
:10FA400008811981CA53D140C02AD12A1A828981DA
:10FA5000BE016D5F7F4F843121F59601C05EDE4FA0
:10FA6000E880F9800A811B81C052D1400BBFF701A9
:10FA700087919691DB018C9311969C936E5F7F4FDB
:10FA8000D801C7010296A11DB11DC05EDE4F88835B
:10FA90009983AA83BB83C052D14022503040F1F6F3
:10FAA00036C0C05EDE4F288139814A815B81C052F9
:10FAB000D1400894C108D108760100E010E0089414
:10FAC000C11CD11C0894E11CF11C011D111DE20E8A
:10FAD000F31E041F151F21BDBB27A52F942F832FB5
:10FAE00082BD2F5F3F4F4F4F5F4FF89A80B5DB01CC
:10FAF0008D93BD012E153F054007510761F7C05E8C
:10FB0000DE4F288339834A835B83C052D1409601FC
:10FB10002D5F3F4FFB01108204C080EC8A8322E0FE
:10FB200030E08BE18093C6008091C00086FFFCCF5F
:10FB30008091C00080648093C000C15DDE4FF88179
:10FB4000CF52D140F093C6008091C00086FFFCCF19
:10FB50008091C00080648093C000432F3093C60022
:10FB60008091C00086FFFCCF8091C00080648093AC
:10FB7000C000922F2093C6008091C00086FFFCCF6A
:10FB80008091C00080648093C0008EE08093C600A6
:10FB90008091C00086FFFCCF8091C000806480937C
:10FBA000C00065E1C15DDE4FE880CF52D1406E25D7
:10FBB00069276427FE01319610C090819093C6009A
:10FBC0008091C00086FFFCCF31968091C000806498
:10FBD0008093C0006927215030402115310569F715
:10FBE0006093C6008091C00086FFFCCF8091C0006A
:10FBF00080648093C00085B1805885B9772081F4F6
:10FC0000C15DDE4F0881CF52D1400F5FC15DDE4F35
:10FC10000883CF52D14090E0A0E0B0E00D941AF4F8
:10FC200027982F9880E090E020ED37E0F901319798
:10FC3000F1F7019684369105C9F700008091C00064
:10FC40008D7F8093C00081E180935700E895EE2777
:10FC5000FF270994FFCF90E00D941AF497FB092E2B
:10FC600007260AD077FD04D02ED006D000201AF443
:10FC7000709561957F4F0895F6F7909581959F4F08
:10FC80000895A1E21A2EAA1BBB1BFD010DC0AA1FDD
:10FC9000BB1FEE1FFF1FA217B307E407F50720F0F5
:10FCA000A21BB30BE40BF50B661F771F881F991F70
:10FCB0001A9469F760957095809590959B01AC01B9
:10FCC000BD01CF010895AA1BBB1B51E107C0AA1FAC
:10FCD000BB1FA617B70710F0A61BB70B881F991FED
:10FCE0005A95A9F780959095BC01CD010895F99991
:10FCF000FECF92BD81BDF89A992780B50895262F31
:10FD0000F999FECF1FBA92BD81BD20BD0FB6F89400
:0EFD1000FA9AF99A0FBE01960895F894FFCF63
:040000033000E000E9
:00000001FF
